:20C00000F2D0400021003D4000C2B24002A52801B24000A52C013E4000E2CE430000B240D5
:20C0200040A528010F433F90DE1D072C1E53FE4DFFFF1F533F90DE1DF92BB24000A52801C9
:0CC04000B24010A52C01824320013041C9
:20E200000A1209123F4000003F90000004243C400000B0126EE23F40E0E33F90E2E31624B3
:20E220003F40E2E33F90E6E311243A40E6E33A80E2E30A110A113940E2E33C497F4C0F5FD9
:20E240001F4FE0E33D498F121A83F723B012DAE33F4000003F90000008243A400000023CFE
:20E260003F4A8F123A900000FB233040C2E30A120912094C1B4902000A43223C0C4A3D4007
:20E280000600B01292E30C591E4C08001D4C04001F4C06000C4F0E930E203E40E0E33E9053
:20E2A000E2E30D246E4D0E5E1E4EE0E31D530C4D0D4F8E12023CB012A6E31B4902001A53F1
:20E2C0000A9BDC2B3040C2E3B240805A2001F293FF102624C2435600D242FF105700D242C9
:20E2E000FE105600B24042A52A01C2430002F2D041002200F2D22700C2432100F2D2210094
:20E30000D2E321000D123D4033821D83FE233D41F2B22000F523B01222E3B01200C0F03F43
:20E32000FF3F3D4000E2B24002A52801B24000A52C013E4000C2CE430000B24040A5280169
:20E340000F433F90DE1D072C1E53FE4DFFFF1F533F90DE1DF92BB24000A52801B24010A5ED
:20E360002C01304131400004B012D6E30C930224B01200E20C43B012C8E2B012D0E31F4C0B
:20E3800001000F9305241D53CD43FFFF1F83FB2330410E4312C30C1001280E5D0D5D0C9323
:20E3A000F9230C4E30410F4C0E9305241F53FF4DFFFF1E83FB23304134413541364137418B
:1CE3C000384139413A41304132D01000FD3F03430343FF3F03431C4330413041C3
:0AE3DC00000001007EE3DCE3000214
:02FFDE00FFFF23
:02FFE000C8E374
:02FFE400C8E370
:02FFE600C8E36E
:02FFEA00C8E36A
:02FFEC00C8E368
:02FFEE00C8E366
:02FFF000C8E364
:02FFF200C8E362
:02FFF400C8E360
:02FFF600C8E35E
:02FFF800C8E35C
:02FFFA00C8E35A
:02FFFC00C8E358
:02FFFE0064E3BA
:00000001FF
